{
  "contractName": "News",
  "abi": [
    {
      "constant": true,
      "inputs": [
        {
          "internalType": "uint256",
          "name": "",
          "type": "uint256"
        }
      ],
      "name": "postes",
      "outputs": [
        {
          "internalType": "string",
          "name": "hash",
          "type": "string"
        },
        {
          "internalType": "string",
          "name": "title",
          "type": "string"
        },
        {
          "components": [
            {
              "internalType": "string",
              "name": "username",
              "type": "string"
            },
            {
              "internalType": "string",
              "name": "email",
              "type": "string"
            },
            {
              "internalType": "uint256[]",
              "name": "postes",
              "type": "uint256[]"
            },
            {
              "internalType": "uint256[1000]",
              "name": "votes",
              "type": "uint256[1000]"
            },
            {
              "internalType": "uint256",
              "name": "reputation",
              "type": "uint256"
            }
          ],
          "internalType": "struct News.User",
          "name": "author",
          "type": "tuple"
        },
        {
          "internalType": "uint256",
          "name": "quality",
          "type": "uint256"
        }
      ],
      "payable": false,
      "stateMutability": "view",
      "type": "function"
    },
    {
      "constant": true,
      "inputs": [
        {
          "internalType": "address",
          "name": "",
          "type": "address"
        }
      ],
      "name": "users",
      "outputs": [
        {
          "internalType": "string",
          "name": "username",
          "type": "string"
        },
        {
          "internalType": "string",
          "name": "email",
          "type": "string"
        },
        {
          "internalType": "uint256",
          "name": "reputation",
          "type": "uint256"
        }
      ],
      "payable": false,
      "stateMutability": "view",
      "type": "function"
    },
    {
      "constant": false,
      "inputs": [
        {
          "internalType": "string",
          "name": "_hash",
          "type": "string"
        },
        {
          "internalType": "string",
          "name": "_title",
          "type": "string"
        }
      ],
      "name": "publishPost",
      "outputs": [],
      "payable": false,
      "stateMutability": "nonpayable",
      "type": "function"
    },
    {
      "constant": false,
      "inputs": [
        {
          "internalType": "uint256",
          "name": "id",
          "type": "uint256"
        },
        {
          "internalType": "bool",
          "name": "real",
          "type": "bool"
        }
      ],
      "name": "votePost",
      "outputs": [],
      "payable": false,
      "stateMutability": "nonpayable",
      "type": "function"
    },
    {
      "constant": true,
      "inputs": [],
      "name": "getNumberPosts",
      "outputs": [
        {
          "internalType": "uint256",
          "name": "",
          "type": "uint256"
        }
      ],
      "payable": false,
      "stateMutability": "view",
      "type": "function"
    },
    {
      "constant": true,
      "inputs": [],
      "name": "getAllPosts",
      "outputs": [
        {
          "internalType": "string[]",
          "name": "",
          "type": "string[]"
        },
        {
          "internalType": "string[]",
          "name": "",
          "type": "string[]"
        },
        {
          "internalType": "uint256[]",
          "name": "",
          "type": "uint256[]"
        },
        {
          "internalType": "string[]",
          "name": "",
          "type": "string[]"
        }
      ],
      "payable": false,
      "stateMutability": "view",
      "type": "function"
    },
    {
      "constant": false,
      "inputs": [
        {
          "internalType": "address",
          "name": "target",
          "type": "address"
        },
        {
          "internalType": "uint256",
          "name": "_reputation",
          "type": "uint256"
        },
        {
          "internalType": "string",
          "name": "_username",
          "type": "string"
        }
      ],
      "name": "setUserData",
      "outputs": [],
      "payable": false,
      "stateMutability": "nonpayable",
      "type": "function"
    },
    {
      "constant": true,
      "inputs": [
        {
          "internalType": "address",
          "name": "addr",
          "type": "address"
        }
      ],
      "name": "getUserPosts",
      "outputs": [
        {
          "internalType": "uint256[]",
          "name": "",
          "type": "uint256[]"
        }
      ],
      "payable": false,
      "stateMutability": "view",
      "type": "function"
    },
    {
      "constant": true,
      "inputs": [
        {
          "internalType": "uint256",
          "name": "id",
          "type": "uint256"
        }
      ],
      "name": "getPost",
      "outputs": [
        {
          "internalType": "string",
          "name": "",
          "type": "string"
        },
        {
          "internalType": "string",
          "name": "",
          "type": "string"
        },
        {
          "internalType": "uint256",
          "name": "",
          "type": "uint256"
        },
        {
          "internalType": "uint256[]",
          "name": "",
          "type": "uint256[]"
        },
        {
          "internalType": "string",
          "name": "",
          "type": "string"
        }
      ],
      "payable": false,
      "stateMutability": "view",
      "type": "function"
    }
  ],
  "bytecode": "0x608060405234801561001057600080fd5b50611fb2806100206000396000f3fe608060405234801561001057600080fd5b50600436106100935760003560e01c80636c488de1116100665780636c488de11461013c5780639a2194a914610158578063a87430ba14610188578063eb678aa7146101ba578063fefb8dc3146101d857610093565b8063305611001461009857806334ea51d3146100b957806340731c24146100d55780635ccc707e14610109575b600080fd5b6100a06101f4565b6040516100b09493929190611b79565b60405180910390f35b6100d360048036036100ce919081019061183a565b6105cd565b005b6100ef60048036036100ea9190810190611811565b61075a565b604051610100959493929190611bfc565b60405180910390f35b610123600480360361011e9190810190611811565b610a3b565b6040516101339493929190611c6b565b60405180910390f35b6101566004803603610151919081019061173e565b610da2565b005b610172600480360361016d9190810190611715565b610e44565b60405161017f9190611bda565b60405180910390f35b6101a2600480360361019d9190810190611715565b610edd565b6040516101b193929190611cc5565b60405180910390f35b6101c2611038565b6040516101cf9190611d0a565b60405180910390f35b6101f260048036036101ed91908101906117a5565b611045565b005b606080606080606060018054905060405190808252806020026020018201604052801561023557816020015b60608152602001906001900390816102205790505b509050606060018054905060405190808252806020026020018201604052801561027357816020015b606081526020019060019003908161025e5790505b50905060606001805490506040519080825280602002602001820160405280156102ac5781602001602082028038833980820191505090505b50905060606001805490506040519080825280602002602001820160405280156102ea57816020015b60608152602001906001900390816102d55790505b50905060008090505b6001805490508110156105b6576001818154811061030d57fe5b906000526020600020906103f002016002018054600181600116156101000203166002900480601f0160208091040260200160405190810160405280929190818152602001828054600181600116156101000203166002900480156103b35780601f10610388576101008083540402835291602001916103b3565b820191906000526020600020905b81548152906001019060200180831161039657829003601f168201915b50505050508582815181106103c457fe5b6020026020010181905250600181815481106103dc57fe5b906000526020600020906103f002016003016000018054600181600116156101000203166002900480601f0160208091040260200160405190810160405280929190818152602001828054600181600116156101000203166002900480156104855780601f1061045a57610100808354040283529160200191610485565b820191906000526020600020905b81548152906001019060200180831161046857829003601f168201915b505050505084828151811061049657fe5b6020026020010181905250600181815481106104ae57fe5b906000526020600020906103f002016103ef01548382815181106104ce57fe5b602002602001018181525050600181815481106104e757fe5b906000526020600020906103f002016000018054600181600116156101000203166002900480601f01602080910402602001604051908101604052809291908181526020018280546001816001161561010002031660029004801561058d5780601f106105625761010080835404028352916020019161058d565b820191906000526020600020905b81548152906001019060200180831161057057829003601f168201915b505050505082828151811061059e57fe5b602002602001018190525080806001019150506102f3565b508383838397509750975097505050505090919293565b6000809050600115158215151415610629576000803373ffffffffffffffffffffffffffffffffffffffff1673ffffffffffffffffffffffffffffffffffffffff1681526020019081526020016000206103eb01549050610672565b6000803373ffffffffffffffffffffffffffffffffffffffff1673ffffffffffffffffffffffffffffffffffffffff1681526020019081526020016000206103eb015460000390505b806001848154811061068057fe5b906000526020600020906103f002016103ef015401600184815481106106a257fe5b906000526020600020906103f002016103ef0181905550600183815481106106c657fe5b906000526020600020906103f00201600101819080600181540180825580915050906001820390600052602060002001600090919290919091505550806000803373ffffffffffffffffffffffffffffffffffffffff1673ffffffffffffffffffffffffffffffffffffffff168152602001908152602001600020600301846103e8811061075057fe5b0181905550505050565b60608060006060806001868154811061076f57fe5b906000526020600020906103f002016002016001878154811061078e57fe5b906000526020600020906103f00201600301600001600188815481106107b057fe5b906000526020600020906103f002016103ef0154600189815481106107d157fe5b906000526020600020906103f0020160010160018a815481106107f057fe5b906000526020600020906103f00201600001848054600181600116156101000203166002900480601f0160208091040260200160405190810160405280929190818152602001828054600181600116156101000203166002900480156108975780601f1061086c57610100808354040283529160200191610897565b820191906000526020600020905b81548152906001019060200180831161087a57829003601f168201915b50505050509450838054600181600116156101000203166002900480601f0160208091040260200160405190810160405280929190818152602001828054600181600116156101000203166002900480156109335780601f1061090857610100808354040283529160200191610933565b820191906000526020600020905b81548152906001019060200180831161091657829003601f168201915b505050505093508180548060200260200160405190810160405280929190818152602001828054801561098557602002820191906000526020600020905b815481526020019060010190808311610971575b50505050509150808054600181600116156101000203166002900480601f016020809104026020016040519081016040528092919081815260200182805460018160011615610100020316600290048015610a215780601f106109f657610100808354040283529160200191610a21565b820191906000526020600020905b815481529060010190602001808311610a0457829003601f168201915b505050505090509450945094509450945091939590929450565b60018181548110610a4857fe5b906000526020600020906103f00201600091509050806000018054600181600116156101000203166002900480601f016020809104026020016040519081016040528092919081815260200182805460018160011615610100020316600290048015610af55780601f10610aca57610100808354040283529160200191610af5565b820191906000526020600020905b815481529060010190602001808311610ad857829003601f168201915b505050505090806002018054600181600116156101000203166002900480601f016020809104026020016040519081016040528092919081815260200182805460018160011615610100020316600290048015610b935780601f10610b6857610100808354040283529160200191610b93565b820191906000526020600020905b815481529060010190602001808311610b7657829003601f168201915b505050505090806003016040518060a0016040529081600082018054600181600116156101000203166002900480601f016020809104026020016040519081016040528092919081815260200182805460018160011615610100020316600290048015610c415780601f10610c1657610100808354040283529160200191610c41565b820191906000526020600020905b815481529060010190602001808311610c2457829003601f168201915b50505050508152602001600182018054600181600116156101000203166002900480601f016020809104026020016040519081016040528092919081815260200182805460018160011615610100020316600290048015610ce35780601f10610cb857610100808354040283529160200191610ce3565b820191906000526020600020905b815481529060010190602001808311610cc657829003601f168201915b5050505050815260200160028201805480602002602001604051908101604052809291908181526020018280548015610d3b57602002820191906000526020600020905b815481526020019060010190808311610d27575b50505050508152602001600382016103e88060200260405190810160405280929190826103e88015610d82576020028201915b815481526020019060010190808311610d6e575b505050505081526020016103eb8201548152505090806103ef0154905084565b816000808573ffffffffffffffffffffffffffffffffffffffff1673ffffffffffffffffffffffffffffffffffffffff1681526020019081526020016000206103eb0181905550806000808573ffffffffffffffffffffffffffffffffffffffff1673ffffffffffffffffffffffffffffffffffffffff1681526020019081526020016000206000019080519060200190610e3e9291906114cf565b50505050565b60606000808373ffffffffffffffffffffffffffffffffffffffff1673ffffffffffffffffffffffffffffffffffffffff168152602001908152602001600020600201805480602002602001604051908101604052809291908181526020018280548015610ed157602002820191906000526020600020905b815481526020019060010190808311610ebd575b50505050509050919050565b6000602052806000526040600020600091509050806000018054600181600116156101000203166002900480601f016020809104026020016040519081016040528092919081815260200182805460018160011615610100020316600290048015610f895780601f10610f5e57610100808354040283529160200191610f89565b820191906000526020600020905b815481529060010190602001808311610f6c57829003601f168201915b505050505090806001018054600181600116156101000203166002900480601f0160208091040260200160405190810160405280929190818152602001828054600181600116156101000203166002900480156110275780601f10610ffc57610100808354040283529160200191611027565b820191906000526020600020905b81548152906001019060200180831161100a57829003601f168201915b505050505090806103eb0154905083565b6000600180549050905090565b60006002905060008060003373ffffffffffffffffffffffffffffffffffffffff1673ffffffffffffffffffffffffffffffffffffffff1681526020019081526020016000206103eb0154905060016040518060a00160405280868152602001848054806020026020016040519081016040528092919081815260200182805480156110f057602002820191906000526020600020905b8154815260200190600101908083116110dc575b505050505081526020018581526020016000803373ffffffffffffffffffffffffffffffffffffffff1673ffffffffffffffffffffffffffffffffffffffff1681526020019081526020016000206040518060a0016040529081600082018054600181600116156101000203166002900480601f0160208091040260200160405190810160405280929190818152602001828054600181600116156101000203166002900480156111e25780601f106111b7576101008083540402835291602001916111e2565b820191906000526020600020905b8154815290600101906020018083116111c557829003601f168201915b50505050508152602001600182018054600181600116156101000203166002900480601f0160208091040260200160405190810160405280929190818152602001828054600181600116156101000203166002900480156112845780601f1061125957610100808354040283529160200191611284565b820191906000526020600020905b81548152906001019060200180831161126757829003601f168201915b50505050508152602001600282018054806020026020016040519081016040528092919081815260200182805480156112dc57602002820191906000526020600020905b8154815260200190600101908083116112c8575b50505050508152602001600382016103e88060200260405190810160405280929190826103e88015611323576020028201915b81548152602001906001019080831161130f575b505050505081526020016103eb8201548152505081526020018381525090806001815401808255809150509060018203906000526020600020906103f0020160009091929091909150600082015181600001908051906020019061138892919061154f565b5060208201518160010190805190602001906113a59291906115cf565b5060408201518160020190805190602001906113c292919061154f565b5060608201518160030160008201518160000190805190602001906113e892919061154f565b50602082015181600101908051906020019061140592919061154f565b5060408201518160020190805190602001906114229291906115cf565b50606082015181600301906103e861143b92919061161c565b506080820151816103eb015550506080820151816103ef01555050506000803373ffffffffffffffffffffffffffffffffffffffff1673ffffffffffffffffffffffffffffffffffffffff1681526020019081526020016000206002016001808054905003908060018154018082558091505090600182039060005260206000200160009091929091909150555050505050565b828054600181600116156101000203166002900490600052602060002090601f016020900481019282601f1061151057805160ff191683800117855561153e565b8280016001018555821561153e579182015b8281111561153d578251825591602001919060010190611522565b5b50905061154b919061165d565b5090565b828054600181600116156101000203166002900490600052602060002090601f016020900481019282601f1061159057805160ff19168380011785556115be565b828001600101855582156115be579182015b828111156115bd5782518255916020019190600101906115a2565b5b5090506115cb919061165d565b5090565b82805482825590600052602060002090810192821561160b579160200282015b8281111561160a5782518255916020019190600101906115ef565b5b509050611618919061165d565b5090565b826103e8810192821561164c579160200282015b8281111561164b578251825591602001919060010190611630565b5b509050611659919061165d565b5090565b61167f91905b8082111561167b576000816000905550600101611663565b5090565b90565b60008135905061169181611f2a565b92915050565b6000813590506116a681611f41565b92915050565b600082601f8301126116bd57600080fd5b81356116d06116cb82611d52565b611d25565b915080825260208301602083018583830111156116ec57600080fd5b6116f7838284611ed7565b50505092915050565b60008135905061170f81611f58565b92915050565b60006020828403121561172757600080fd5b600061173584828501611682565b91505092915050565b60008060006060848603121561175357600080fd5b600061176186828701611682565b935050602061177286828701611700565b925050604084013567ffffffffffffffff81111561178f57600080fd5b61179b868287016116ac565b9150509250925092565b600080604083850312156117b857600080fd5b600083013567ffffffffffffffff8111156117d257600080fd5b6117de858286016116ac565b925050602083013567ffffffffffffffff8111156117fb57600080fd5b611807858286016116ac565b9150509250929050565b60006020828403121561182357600080fd5b600061183184828501611700565b91505092915050565b6000806040838503121561184d57600080fd5b600061185b85828601611700565b925050602061186c85828601611697565b9150509250929050565b60006118828383611a63565b905092915050565b60006118968383611b5b565b60208301905092915050565b60006118ad82611db8565b6118b78185611e2f565b9350836020820285016118c985611d7e565b8060005b8581101561190557848403895281516118e68582611876565b94506118f183611dfb565b925060208a019950506001810190506118cd565b50829750879550505050505092915050565b61192081611dc3565b61192a8184611e40565b925061193582611d8e565b8060005b8381101561196657815161194d878261188a565b965061195883611e08565b925050600181019050611939565b505050505050565b600061197982611dda565b6119838185611e5c565b935061198e83611da8565b8060005b838110156119bf5781516119a6888261188a565b97506119b183611e22565b925050600181019050611992565b5085935050505092915050565b60006119d782611dcf565b6119e18185611e4b565b93506119ec83611d98565b8060005b83811015611a1d578151611a04888261188a565b9750611a0f83611e15565b9250506001810190506119f0565b5085935050505092915050565b6000611a3582611df0565b611a3f8185611e7e565b9350611a4f818560208601611ee6565b611a5881611f19565b840191505092915050565b6000611a6e82611de5565b611a788185611e6d565b9350611a88818560208601611ee6565b611a9181611f19565b840191505092915050565b6000611aa782611de5565b611ab18185611e7e565b9350611ac1818560208601611ee6565b611aca81611f19565b840191505092915050565b6000617d80830160008301518482036000860152611af38282611a63565b91505060208301518482036020860152611b0d8282611a63565b91505060408301518482036040860152611b2782826119cc565b9150506060830151611b3c6060860182611917565b506080830151611b50617d60860182611b5b565b508091505092915050565b611b6481611ecd565b82525050565b611b7381611ecd565b82525050565b60006080820190508181036000830152611b9381876118a2565b90508181036020830152611ba781866118a2565b90508181036040830152611bbb818561196e565b90508181036060830152611bcf81846118a2565b905095945050505050565b60006020820190508181036000830152611bf4818461196e565b905092915050565b600060a0820190508181036000830152611c168188611a2a565b90508181036020830152611c2a8187611a2a565b9050611c396040830186611b6a565b8181036060830152611c4b818561196e565b90508181036080830152611c5f8184611a2a565b90509695505050505050565b60006080820190508181036000830152611c858187611a9c565b90508181036020830152611c998186611a9c565b90508181036040830152611cad8185611ad5565b9050611cbc6060830184611b6a565b95945050505050565b60006060820190508181036000830152611cdf8186611a9c565b90508181036020830152611cf38185611a9c565b9050611d026040830184611b6a565b949350505050565b6000602082019050611d1f6000830184611b6a565b92915050565b6000604051905081810181811067ffffffffffffffff82111715611d4857600080fd5b8060405250919050565b600067ffffffffffffffff821115611d6957600080fd5b601f19601f8301169050602081019050919050565b6000819050602082019050919050565b6000819050919050565b6000819050602082019050919050565b6000819050602082019050919050565b600081519050919050565b60006103e89050919050565b600081519050919050565b600081519050919050565b600081519050919050565b600081519050919050565b6000602082019050919050565b6000602082019050919050565b6000602082019050919050565b6000602082019050919050565b600082825260208201905092915050565b600081905092915050565b600082825260208201905092915050565b600082825260208201905092915050565b600082825260208201905092915050565b600082825260208201905092915050565b6000611e9a82611ead565b9050919050565b60008115159050919050565b600073ffffffffffffffffffffffffffffffffffffffff82169050919050565b6000819050919050565b82818337600083830152505050565b60005b83811015611f04578082015181840152602081019050611ee9565b83811115611f13576000848401525b50505050565b6000601f19601f8301169050919050565b611f3381611e8f565b8114611f3e57600080fd5b50565b611f4a81611ea1565b8114611f5557600080fd5b50565b611f6181611ecd565b8114611f6c57600080fd5b5056fea365627a7a7231582071c94f69fe65a76afeae4093f868619d79fa3e48bd05f7c60a79accb8487e5c86c6578706572696d656e74616cf564736f6c63430005100040",
  "source": "pragma solidity >=0.4.25 <0.6.0;\r\npragma experimental ABIEncoderV2;\r\n\r\ncontract News {\r\n    struct User {\r\n        string username;\r\n        string email;\r\n        uint256[] postes;\r\n        uint256[1000] votes;\r\n        uint256 reputation;\r\n    }\r\n\r\n    struct Post {\r\n        string hash;\r\n        uint256[] votes;\r\n        string title;\r\n        User author;\r\n        uint256 quality;\r\n    }\r\n\r\n    mapping(address => User) public users;\r\n    Post[] public postes;\r\n    uint256[] __votes;\r\n\r\n    function publishPost(string memory _hash,string memory _title) public {\r\n        uint256[] storage _votes = __votes;\r\n        uint256 _quality = users[msg.sender].reputation;\r\n        postes.push(\r\n            Post({\r\n            hash: _hash,\r\n            votes: _votes,\r\n            quality: _quality,\r\n            title: _title,\r\n            author: users[msg.sender]\r\n            })\r\n        );\r\n        users[msg.sender].postes.push(postes.length - 1);\r\n    }\r\n\r\n    function votePost(uint256 id, bool real) public {\r\n        uint256 reps = 0;\r\n        if (real == true) {\r\n            reps = users[msg.sender].reputation;\r\n        } else {\r\n            reps = -users[msg.sender].reputation;\r\n        }\r\n        postes[id].quality = postes[id].quality + reps;\r\n        postes[id].votes.push(reps);\r\n        users[msg.sender].votes[id] = reps;\r\n    }\r\n\r\n    function getNumberPosts() public view returns (uint256) {\r\n        return postes.length;\r\n    }\r\n\r\n    function getAllPosts() public view  returns (string[] memory, string[] memory, uint256[] memory, string[] memory)\r\n    {\r\n        string[] memory titles = new string[](postes.length);\r\n        string[] memory authors = new string[](postes.length);\r\n        uint256[] memory quality = new uint256[](postes.length);\r\n        string[] memory hashes = new string[](postes.length);\r\n\r\n        for (uint256 i = 0; i < postes.length; i++) {\r\n            titles[i] = postes[i].title;\r\n            authors[i] = postes[i].author.username;\r\n            quality[i] = postes[i].quality;\r\n            hashes[i] = postes[i].hash;\r\n        }\r\n\r\n        return (titles, authors, quality, hashes);\r\n    }\r\n\r\n    function setUserData(address target, uint256 _reputation, string memory _username) public {\r\n        users[target].reputation = _reputation;\r\n        users[target].username = _username;\r\n    }\r\n\r\n    function getUserPosts(address addr) public view returns (uint256[] memory)\r\n    {\r\n        return users[addr].postes;\r\n    }\r\n\r\n    function getPost(uint256 id) public view returns ( string memory, string memory, uint256, uint256[] memory,string memory )\r\n    {\r\n        return (postes[id].title, postes[id].author.username, postes[id].quality, postes[id].votes, postes[id].hash);\r\n    }\r\n}\r\n",
  "sourcePath": "C:\\mourad\\fakeNews\\contracts\\News.sol",
  "compiler": {
    "name": "solc",
    "version": "0.5.16+commit.9c3226ce.Emscripten.clang"
  },
  "schemaVersion": "3.4.3",
  "updatedAt": "2021-09-09T09:36:56.191Z",
  "networkType": "ethereum",
  "devdoc": {
    "methods": {}
  },
  "userdoc": {
    "methods": {}
  }
}