{
  "contractName": "News",
  "abi": [
    {
      "constant": true,
      "inputs": [
        {
          "internalType": "uint256",
          "name": "",
          "type": "uint256"
        }
      ],
      "name": "postes",
      "outputs": [
        {
          "internalType": "string",
          "name": "title",
          "type": "string"
        },
        {
          "components": [
            {
              "internalType": "string",
              "name": "username",
              "type": "string"
            },
            {
              "internalType": "string",
              "name": "email",
              "type": "string"
            },
            {
              "internalType": "uint256[]",
              "name": "postes",
              "type": "uint256[]"
            },
            {
              "internalType": "uint256[1000]",
              "name": "votes",
              "type": "uint256[1000]"
            },
            {
              "internalType": "uint256",
              "name": "reputation",
              "type": "uint256"
            }
          ],
          "internalType": "struct News.User",
          "name": "author",
          "type": "tuple"
        },
        {
          "internalType": "uint256",
          "name": "quality",
          "type": "uint256"
        }
      ],
      "payable": false,
      "stateMutability": "view",
      "type": "function"
    },
    {
      "constant": true,
      "inputs": [
        {
          "internalType": "address",
          "name": "",
          "type": "address"
        }
      ],
      "name": "users",
      "outputs": [
        {
          "internalType": "string",
          "name": "username",
          "type": "string"
        },
        {
          "internalType": "string",
          "name": "email",
          "type": "string"
        },
        {
          "internalType": "uint256",
          "name": "reputation",
          "type": "uint256"
        }
      ],
      "payable": false,
      "stateMutability": "view",
      "type": "function"
    },
    {
      "constant": false,
      "inputs": [
        {
          "internalType": "string",
          "name": "_title",
          "type": "string"
        },
        {
          "internalType": "uint256[]",
          "name": "_votes",
          "type": "uint256[]"
        }
      ],
      "name": "publishPost",
      "outputs": [],
      "payable": false,
      "stateMutability": "nonpayable",
      "type": "function"
    },
    {
      "constant": false,
      "inputs": [
        {
          "internalType": "uint256",
          "name": "id",
          "type": "uint256"
        },
        {
          "internalType": "bool",
          "name": "real",
          "type": "bool"
        }
      ],
      "name": "votePost",
      "outputs": [],
      "payable": false,
      "stateMutability": "nonpayable",
      "type": "function"
    },
    {
      "constant": true,
      "inputs": [],
      "name": "getNumberPosts",
      "outputs": [
        {
          "internalType": "uint256",
          "name": "",
          "type": "uint256"
        }
      ],
      "payable": false,
      "stateMutability": "view",
      "type": "function"
    },
    {
      "constant": true,
      "inputs": [],
      "name": "getAllPosts",
      "outputs": [
        {
          "internalType": "string[]",
          "name": "",
          "type": "string[]"
        },
        {
          "internalType": "string[]",
          "name": "",
          "type": "string[]"
        },
        {
          "internalType": "uint256[]",
          "name": "",
          "type": "uint256[]"
        }
      ],
      "payable": false,
      "stateMutability": "view",
      "type": "function"
    },
    {
      "constant": false,
      "inputs": [
        {
          "internalType": "address",
          "name": "target",
          "type": "address"
        },
        {
          "internalType": "uint256",
          "name": "_reputation",
          "type": "uint256"
        },
        {
          "internalType": "string",
          "name": "_username",
          "type": "string"
        }
      ],
      "name": "setUserData",
      "outputs": [],
      "payable": false,
      "stateMutability": "nonpayable",
      "type": "function"
    },
    {
      "constant": true,
      "inputs": [
        {
          "internalType": "address",
          "name": "addr",
          "type": "address"
        }
      ],
      "name": "getUserPosts",
      "outputs": [
        {
          "internalType": "uint256[]",
          "name": "",
          "type": "uint256[]"
        }
      ],
      "payable": false,
      "stateMutability": "view",
      "type": "function"
    },
    {
      "constant": true,
      "inputs": [
        {
          "internalType": "uint256",
          "name": "id",
          "type": "uint256"
        }
      ],
      "name": "getPost",
      "outputs": [
        {
          "internalType": "string",
          "name": "",
          "type": "string"
        },
        {
          "internalType": "string",
          "name": "",
          "type": "string"
        },
        {
          "internalType": "uint256",
          "name": "",
          "type": "uint256"
        },
        {
          "internalType": "uint256[]",
          "name": "",
          "type": "uint256[]"
        }
      ],
      "payable": false,
      "stateMutability": "view",
      "type": "function"
    }
  ],
  "bytecode": "0x608060405234801561001057600080fd5b50611d30806100206000396000f3fe608060405234801561001057600080fd5b50600436106100935760003560e01c806360439df01161006657806360439df0146101395780636c488de1146101555780639a2194a914610171578063a87430ba146101a1578063eb678aa7146101d357610093565b8063305611001461009857806334ea51d3146100b857806340731c24146100d45780635ccc707e14610107575b600080fd5b6100a06101f1565b6040516100af9392919061190e565b60405180910390f35b6100d260048036036100cd91908101906115cf565b6104b6565b005b6100ee60048036036100e991908101906115a6565b610643565b6040516100fe949392919061197c565b60405180910390f35b610121600480360361011c91908101906115a6565b610864565b60405161013093929190611a1b565b60405180910390f35b610153600480360361014e919081019061153a565b610b2d565b005b61016f600480360361016a91908101906114d3565b610f3e565b005b61018b600480360361018691908101906114aa565b610fe0565b604051610198919061195a565b60405180910390f35b6101bb60048036036101b691908101906114aa565b611079565b6040516101ca939291906119d6565b60405180910390f35b6101db6111d4565b6040516101e89190611a60565b60405180910390f35b60608060608060018054905060405190808252806020026020018201604052801561023057816020015b606081526020019060019003908161021b5790505b509050606060018054905060405190808252806020026020018201604052801561026e57816020015b60608152602001906001900390816102595790505b50905060606001805490506040519080825280602002602001820160405280156102a75781602001602082028038833980820191505090505b50905060008090505b6001805490508110156104a457600181815481106102ca57fe5b906000526020600020906103ef02016001018054600181600116156101000203166002900480601f0160208091040260200160405190810160405280929190818152602001828054600181600116156101000203166002900480156103705780601f1061034557610100808354040283529160200191610370565b820191906000526020600020905b81548152906001019060200180831161035357829003601f168201915b505050505084828151811061038157fe5b60200260200101819052506001818154811061039957fe5b906000526020600020906103ef02016002016000018054600181600116156101000203166002900480601f0160208091040260200160405190810160405280929190818152602001828054600181600116156101000203166002900480156104425780601f1061041757610100808354040283529160200191610442565b820191906000526020600020905b81548152906001019060200180831161042557829003601f168201915b505050505083828151811061045357fe5b60200260200101819052506001818154811061046b57fe5b906000526020600020906103ef02016103ee015482828151811061048b57fe5b60200260200101818152505080806001019150506102b0565b50828282955095509550505050909192565b6000809050600115158215151415610512576000803373ffffffffffffffffffffffffffffffffffffffff1673ffffffffffffffffffffffffffffffffffffffff1681526020019081526020016000206103eb0154905061055b565b6000803373ffffffffffffffffffffffffffffffffffffffff1673ffffffffffffffffffffffffffffffffffffffff1681526020019081526020016000206103eb015460000390505b806001848154811061056957fe5b906000526020600020906103ef02016103ee0154016001848154811061058b57fe5b906000526020600020906103ef02016103ee0181905550600183815481106105af57fe5b906000526020600020906103ef0201600001819080600181540180825580915050906001820390600052602060002001600090919290919091505550806000803373ffffffffffffffffffffffffffffffffffffffff1673ffffffffffffffffffffffffffffffffffffffff168152602001908152602001600020600301846103e8811061063957fe5b0181905550505050565b606080600060606001858154811061065757fe5b906000526020600020906103ef02016001016001868154811061067657fe5b906000526020600020906103ef02016002016000016001878154811061069857fe5b906000526020600020906103ef02016103ee0154600188815481106106b957fe5b906000526020600020906103ef0201600001838054600181600116156101000203166002900480601f0160208091040260200160405190810160405280929190818152602001828054600181600116156101000203166002900480156107605780601f1061073557610100808354040283529160200191610760565b820191906000526020600020905b81548152906001019060200180831161074357829003601f168201915b50505050509350828054600181600116156101000203166002900480601f0160208091040260200160405190810160405280929190818152602001828054600181600116156101000203166002900480156107fc5780601f106107d1576101008083540402835291602001916107fc565b820191906000526020600020905b8154815290600101906020018083116107df57829003601f168201915b505050505092508080548060200260200160405190810160405280929190818152602001828054801561084e57602002820191906000526020600020905b81548152602001906001019080831161083a575b5050505050905093509350935093509193509193565b6001818154811061087157fe5b906000526020600020906103ef0201600091509050806001018054600181600116156101000203166002900480601f01602080910402602001604051908101604052809291908181526020018280546001816001161561010002031660029004801561091e5780601f106108f35761010080835404028352916020019161091e565b820191906000526020600020905b81548152906001019060200180831161090157829003601f168201915b505050505090806002016040518060a0016040529081600082018054600181600116156101000203166002900480601f0160208091040260200160405190810160405280929190818152602001828054600181600116156101000203166002900480156109cc5780601f106109a1576101008083540402835291602001916109cc565b820191906000526020600020905b8154815290600101906020018083116109af57829003601f168201915b50505050508152602001600182018054600181600116156101000203166002900480601f016020809104026020016040519081016040528092919081815260200182805460018160011615610100020316600290048015610a6e5780601f10610a4357610100808354040283529160200191610a6e565b820191906000526020600020905b815481529060010190602001808311610a5157829003601f168201915b5050505050815260200160028201805480602002602001604051908101604052809291908181526020018280548015610ac657602002820191906000526020600020905b815481526020019060010190808311610ab2575b50505050508152602001600382016103e88060200260405190810160405280929190826103e88015610b0d576020028201915b815481526020019060010190808311610af9575b505050505081526020016103eb8201548152505090806103ee0154905083565b60008060003373ffffffffffffffffffffffffffffffffffffffff1673ffffffffffffffffffffffffffffffffffffffff1681526020019081526020016000206103eb01549050600160405180608001604052808481526020018581526020016000803373ffffffffffffffffffffffffffffffffffffffff1673ffffffffffffffffffffffffffffffffffffffff1681526020019081526020016000206040518060a0016040529081600082018054600181600116156101000203166002900480601f016020809104026020016040519081016040528092919081815260200182805460018160011615610100020316600290048015610c6f5780601f10610c4457610100808354040283529160200191610c6f565b820191906000526020600020905b815481529060010190602001808311610c5257829003601f168201915b50505050508152602001600182018054600181600116156101000203166002900480601f016020809104026020016040519081016040528092919081815260200182805460018160011615610100020316600290048015610d115780601f10610ce657610100808354040283529160200191610d11565b820191906000526020600020905b815481529060010190602001808311610cf457829003601f168201915b5050505050815260200160028201805480602002602001604051908101604052809291908181526020018280548015610d6957602002820191906000526020600020905b815481526020019060010190808311610d55575b50505050508152602001600382016103e88060200260405190810160405280929190826103e88015610db0576020028201915b815481526020019060010190808311610d9c575b505050505081526020016103eb8201548152505081526020018381525090806001815401808255809150509060018203906000526020600020906103ef0201600090919290919091506000820151816000019080519060200190610e159291906111e1565b506020820151816001019080519060200190610e3292919061122e565b506040820151816002016000820151816000019080519060200190610e5892919061122e565b506020820151816001019080519060200190610e7592919061122e565b506040820151816002019080519060200190610e929291906111e1565b50606082015181600301906103e8610eab9291906112ae565b506080820151816103eb015550506060820151816103ee01555050506000803373ffffffffffffffffffffffffffffffffffffffff1673ffffffffffffffffffffffffffffffffffffffff16815260200190815260200160002060020160018080549050039080600181540180825580915050906001820390600052602060002001600090919290919091505550505050565b816000808573ffffffffffffffffffffffffffffffffffffffff1673ffffffffffffffffffffffffffffffffffffffff1681526020019081526020016000206103eb0181905550806000808573ffffffffffffffffffffffffffffffffffffffff1673ffffffffffffffffffffffffffffffffffffffff1681526020019081526020016000206000019080519060200190610fda9291906112ef565b50505050565b60606000808373ffffffffffffffffffffffffffffffffffffffff1673ffffffffffffffffffffffffffffffffffffffff16815260200190815260200160002060020180548060200260200160405190810160405280929190818152602001828054801561106d57602002820191906000526020600020905b815481526020019060010190808311611059575b50505050509050919050565b6000602052806000526040600020600091509050806000018054600181600116156101000203166002900480601f0160208091040260200160405190810160405280929190818152602001828054600181600116156101000203166002900480156111255780601f106110fa57610100808354040283529160200191611125565b820191906000526020600020905b81548152906001019060200180831161110857829003601f168201915b505050505090806001018054600181600116156101000203166002900480601f0160208091040260200160405190810160405280929190818152602001828054600181600116156101000203166002900480156111c35780601f10611198576101008083540402835291602001916111c3565b820191906000526020600020905b8154815290600101906020018083116111a657829003601f168201915b505050505090806103eb0154905083565b6000600180549050905090565b82805482825590600052602060002090810192821561121d579160200282015b8281111561121c578251825591602001919060010190611201565b5b50905061122a919061136f565b5090565b828054600181600116156101000203166002900490600052602060002090601f016020900481019282601f1061126f57805160ff191683800117855561129d565b8280016001018555821561129d579182015b8281111561129c578251825591602001919060010190611281565b5b5090506112aa919061136f565b5090565b826103e881019282156112de579160200282015b828111156112dd5782518255916020019190600101906112c2565b5b5090506112eb919061136f565b5090565b828054600181600116156101000203166002900490600052602060002090601f016020900481019282601f1061133057805160ff191683800117855561135e565b8280016001018555821561135e579182015b8281111561135d578251825591602001919060010190611342565b5b50905061136b919061136f565b5090565b61139191905b8082111561138d576000816000905550600101611375565b5090565b90565b6000813590506113a381611ca8565b92915050565b600082601f8301126113ba57600080fd5b81356113cd6113c882611aa8565b611a7b565b915081818352602084019350602081019050838560208402820111156113f257600080fd5b60005b8381101561142257816114088882611495565b8452602084019350602083019250506001810190506113f5565b5050505092915050565b60008135905061143b81611cbf565b92915050565b600082601f83011261145257600080fd5b813561146561146082611ad0565b611a7b565b9150808252602083016020830185838301111561148157600080fd5b61148c838284611c55565b50505092915050565b6000813590506114a481611cd6565b92915050565b6000602082840312156114bc57600080fd5b60006114ca84828501611394565b91505092915050565b6000806000606084860312156114e857600080fd5b60006114f686828701611394565b935050602061150786828701611495565b925050604084013567ffffffffffffffff81111561152457600080fd5b61153086828701611441565b9150509250925092565b6000806040838503121561154d57600080fd5b600083013567ffffffffffffffff81111561156757600080fd5b61157385828601611441565b925050602083013567ffffffffffffffff81111561159057600080fd5b61159c858286016113a9565b9150509250929050565b6000602082840312156115b857600080fd5b60006115c684828501611495565b91505092915050565b600080604083850312156115e257600080fd5b60006115f085828601611495565b92505060206116018582860161142c565b9150509250929050565b600061161783836117f8565b905092915050565b600061162b83836118f0565b60208301905092915050565b600061164282611b36565b61164c8185611bad565b93508360208202850161165e85611afc565b8060005b8581101561169a578484038952815161167b858261160b565b945061168683611b79565b925060208a01995050600181019050611662565b50829750879550505050505092915050565b6116b581611b41565b6116bf8184611bbe565b92506116ca82611b0c565b8060005b838110156116fb5781516116e2878261161f565b96506116ed83611b86565b9250506001810190506116ce565b505050505050565b600061170e82611b58565b6117188185611bda565b935061172383611b26565b8060005b8381101561175457815161173b888261161f565b975061174683611ba0565b925050600181019050611727565b5085935050505092915050565b600061176c82611b4d565b6117768185611bc9565b935061178183611b16565b8060005b838110156117b2578151611799888261161f565b97506117a483611b93565b925050600181019050611785565b5085935050505092915050565b60006117ca82611b6e565b6117d48185611bfc565b93506117e4818560208601611c64565b6117ed81611c97565b840191505092915050565b600061180382611b63565b61180d8185611beb565b935061181d818560208601611c64565b61182681611c97565b840191505092915050565b600061183c82611b63565b6118468185611bfc565b9350611856818560208601611c64565b61185f81611c97565b840191505092915050565b6000617d8083016000830151848203600086015261188882826117f8565b915050602083015184820360208601526118a282826117f8565b915050604083015184820360408601526118bc8282611761565b91505060608301516118d160608601826116ac565b5060808301516118e5617d608601826118f0565b508091505092915050565b6118f981611c4b565b82525050565b61190881611c4b565b82525050565b600060608201905081810360008301526119288186611637565b9050818103602083015261193c8185611637565b905081810360408301526119508184611703565b9050949350505050565b600060208201905081810360008301526119748184611703565b905092915050565b6000608082019050818103600083015261199681876117bf565b905081810360208301526119aa81866117bf565b90506119b960408301856118ff565b81810360608301526119cb8184611703565b905095945050505050565b600060608201905081810360008301526119f08186611831565b90508181036020830152611a048185611831565b9050611a1360408301846118ff565b949350505050565b60006060820190508181036000830152611a358186611831565b90508181036020830152611a49818561186a565b9050611a5860408301846118ff565b949350505050565b6000602082019050611a7560008301846118ff565b92915050565b6000604051905081810181811067ffffffffffffffff82111715611a9e57600080fd5b8060405250919050565b600067ffffffffffffffff821115611abf57600080fd5b602082029050602081019050919050565b600067ffffffffffffffff821115611ae757600080fd5b601f19601f8301169050602081019050919050565b6000819050602082019050919050565b6000819050919050565b6000819050602082019050919050565b6000819050602082019050919050565b600081519050919050565b60006103e89050919050565b600081519050919050565b600081519050919050565b600081519050919050565b600081519050919050565b6000602082019050919050565b6000602082019050919050565b6000602082019050919050565b6000602082019050919050565b600082825260208201905092915050565b600081905092915050565b600082825260208201905092915050565b600082825260208201905092915050565b600082825260208201905092915050565b600082825260208201905092915050565b6000611c1882611c2b565b9050919050565b60008115159050919050565b600073ffffffffffffffffffffffffffffffffffffffff82169050919050565b6000819050919050565b82818337600083830152505050565b60005b83811015611c82578082015181840152602081019050611c67565b83811115611c91576000848401525b50505050565b6000601f19601f8301169050919050565b611cb181611c0d565b8114611cbc57600080fd5b50565b611cc881611c1f565b8114611cd357600080fd5b50565b611cdf81611c4b565b8114611cea57600080fd5b5056fea365627a7a723158204de3782eb68c7f48a7e1065fa42112e369e3fbc0247935b3cfe1154d31ed53486c6578706572696d656e74616cf564736f6c63430005100040",
  "source": "pragma solidity >=0.4.25 <0.6.0;\r\npragma experimental ABIEncoderV2;\r\n\r\ncontract News {\r\n    struct User {\r\n        string username;\r\n        string email;\r\n        uint256[] postes;\r\n        uint256[1000] votes;\r\n        uint256 reputation;\r\n    }\r\n\r\n    struct Post {\r\n        uint256[] votes;\r\n        string title;\r\n        User author;\r\n        uint256 quality;\r\n    }\r\n\r\n    mapping(address => User) public users;\r\n    Post[] public postes;\r\n\r\n    function publishPost( string memory _title, uint256[] memory _votes) public {\r\n        uint256 _quality = users[msg.sender].reputation;\r\n        postes.push(\r\n            Post({\r\n            votes: _votes,\r\n            quality: _quality,\r\n            title: _title,\r\n            author: users[msg.sender]\r\n            })\r\n        );\r\n        users[msg.sender].postes.push(postes.length - 1);\r\n    }\r\n\r\n    function votePost(uint256 id, bool real) public {\r\n        uint256 reps = 0;\r\n        if (real == true) {\r\n            reps = users[msg.sender].reputation;\r\n        } else {\r\n            reps = -users[msg.sender].reputation;\r\n        }\r\n        postes[id].quality = postes[id].quality + reps;\r\n        postes[id].votes.push(reps);\r\n        users[msg.sender].votes[id] = reps;\r\n    }\r\n\r\n    function getNumberPosts() public view returns (uint256) {\r\n        return postes.length;\r\n    }\r\n\r\n    function getAllPosts() public view  returns (string[] memory, string[] memory, uint256[] memory)\r\n    {\r\n        string[] memory titles = new string[](postes.length);\r\n        string[] memory authors = new string[](postes.length);\r\n        uint256[] memory quality = new uint256[](postes.length);\r\n\r\n        for (uint256 i = 0; i < postes.length; i++) {\r\n            titles[i] = postes[i].title;\r\n            authors[i] = postes[i].author.username;\r\n            quality[i] = postes[i].quality;\r\n        }\r\n\r\n        return (titles, authors, quality);\r\n    }\r\n\r\n    function setUserData(address target, uint256 _reputation, string memory _username) public {\r\n        users[target].reputation = _reputation;\r\n        users[target].username = _username;\r\n    }\r\n\r\n    function getUserPosts(address addr) public view returns (uint256[] memory)\r\n    {\r\n        return users[addr].postes;\r\n    }\r\n\r\n    function getPost(uint256 id) public view returns ( string memory, string memory, uint256, uint256[] memory )\r\n    {\r\n        return (postes[id].title, postes[id].author.username, postes[id].quality, postes[id].votes);\r\n    }\r\n}\r\n",
  "sourcePath": "C:\\mourad\\fakeNews\\contracts\\News.sol",
  "compiler": {
    "name": "solc",
    "version": "0.5.16+commit.9c3226ce.Emscripten.clang"
  },
  "schemaVersion": "3.4.3",
  "updatedAt": "2021-09-08T14:25:48.859Z",
  "networkType": "ethereum",
  "devdoc": {
    "methods": {}
  },
  "userdoc": {
    "methods": {}
  }
}