{
  "contractName": "News",
  "abi": [
    {
      "constant": true,
      "inputs": [
        {
          "internalType": "uint256",
          "name": "",
          "type": "uint256"
        }
      ],
      "name": "postes",
      "outputs": [
        {
          "internalType": "bytes32",
          "name": "_hash",
          "type": "bytes32"
        },
        {
          "internalType": "string",
          "name": "title",
          "type": "string"
        },
        {
          "components": [
            {
              "internalType": "string",
              "name": "username",
              "type": "string"
            },
            {
              "internalType": "string",
              "name": "email",
              "type": "string"
            },
            {
              "internalType": "uint256[]",
              "name": "postes",
              "type": "uint256[]"
            },
            {
              "internalType": "uint256[1000]",
              "name": "votes",
              "type": "uint256[1000]"
            },
            {
              "internalType": "uint256",
              "name": "reputation",
              "type": "uint256"
            }
          ],
          "internalType": "struct News.User",
          "name": "author",
          "type": "tuple"
        },
        {
          "internalType": "uint256",
          "name": "quality",
          "type": "uint256"
        }
      ],
      "payable": false,
      "stateMutability": "view",
      "type": "function"
    },
    {
      "constant": true,
      "inputs": [
        {
          "internalType": "address",
          "name": "",
          "type": "address"
        }
      ],
      "name": "users",
      "outputs": [
        {
          "internalType": "string",
          "name": "username",
          "type": "string"
        },
        {
          "internalType": "string",
          "name": "email",
          "type": "string"
        },
        {
          "internalType": "uint256",
          "name": "reputation",
          "type": "uint256"
        }
      ],
      "payable": false,
      "stateMutability": "view",
      "type": "function"
    },
    {
      "constant": false,
      "inputs": [
        {
          "internalType": "bytes32",
          "name": "__hash",
          "type": "bytes32"
        },
        {
          "internalType": "string",
          "name": "_title",
          "type": "string"
        }
      ],
      "name": "publishPost",
      "outputs": [],
      "payable": false,
      "stateMutability": "nonpayable",
      "type": "function"
    },
    {
      "constant": false,
      "inputs": [
        {
          "internalType": "uint256",
          "name": "id",
          "type": "uint256"
        },
        {
          "internalType": "bool",
          "name": "real",
          "type": "bool"
        }
      ],
      "name": "votePost",
      "outputs": [],
      "payable": false,
      "stateMutability": "nonpayable",
      "type": "function"
    },
    {
      "constant": true,
      "inputs": [],
      "name": "getNumberPosts",
      "outputs": [
        {
          "internalType": "uint256",
          "name": "",
          "type": "uint256"
        }
      ],
      "payable": false,
      "stateMutability": "view",
      "type": "function"
    },
    {
      "constant": true,
      "inputs": [],
      "name": "getAllPosts",
      "outputs": [
        {
          "internalType": "string[]",
          "name": "",
          "type": "string[]"
        },
        {
          "internalType": "string[]",
          "name": "",
          "type": "string[]"
        },
        {
          "internalType": "uint256[]",
          "name": "",
          "type": "uint256[]"
        },
        {
          "internalType": "bytes32[]",
          "name": "",
          "type": "bytes32[]"
        }
      ],
      "payable": false,
      "stateMutability": "view",
      "type": "function"
    },
    {
      "constant": false,
      "inputs": [
        {
          "internalType": "address",
          "name": "target",
          "type": "address"
        },
        {
          "internalType": "uint256",
          "name": "_reputation",
          "type": "uint256"
        },
        {
          "internalType": "string",
          "name": "_username",
          "type": "string"
        }
      ],
      "name": "setUserData",
      "outputs": [],
      "payable": false,
      "stateMutability": "nonpayable",
      "type": "function"
    },
    {
      "constant": true,
      "inputs": [
        {
          "internalType": "address",
          "name": "addr",
          "type": "address"
        }
      ],
      "name": "getUserPosts",
      "outputs": [
        {
          "internalType": "uint256[]",
          "name": "",
          "type": "uint256[]"
        }
      ],
      "payable": false,
      "stateMutability": "view",
      "type": "function"
    },
    {
      "constant": true,
      "inputs": [
        {
          "internalType": "uint256",
          "name": "id",
          "type": "uint256"
        }
      ],
      "name": "getPost",
      "outputs": [
        {
          "internalType": "string",
          "name": "",
          "type": "string"
        },
        {
          "internalType": "string",
          "name": "",
          "type": "string"
        },
        {
          "internalType": "uint256",
          "name": "",
          "type": "uint256"
        },
        {
          "internalType": "uint256[]",
          "name": "",
          "type": "uint256[]"
        },
        {
          "internalType": "bytes32",
          "name": "",
          "type": "bytes32"
        }
      ],
      "payable": false,
      "stateMutability": "view",
      "type": "function"
    }
  ],
  "bytecode": "0x608060405234801561001057600080fd5b50611eae806100206000396000f3fe608060405234801561001057600080fd5b50600436106100935760003560e01c80636c488de1116100665780636c488de11461013c5780639a2194a914610158578063a87430ba14610188578063c5d147c7146101ba578063eb678aa7146101d657610093565b8063305611001461009857806334ea51d3146100b957806340731c24146100d55780635ccc707e14610109575b600080fd5b6100a06101f4565b6040516100b09493929190611a29565b60405180910390f35b6100d360048036036100ce9190810190611656565b610531565b005b6100ef60048036036100ea919081019061162d565b6106be565b604051610100959493929190611aff565b60405180910390f35b610123600480360361011e919081019061162d565b610905565b6040516101339493929190611aac565b60405180910390f35b61015660048036036101519190810190611572565b610bd4565b005b610172600480360361016d9190810190611549565b610c76565b60405161017f9190611a8a565b60405180910390f35b6101a2600480360361019d9190810190611549565b610d0f565b6040516101b193929190611b67565b60405180910390f35b6101d460048036036101cf91908101906115d9565b610e6a565b005b6101de6112e1565b6040516101eb9190611bac565b60405180910390f35b606080606080606060018054905060405190808252806020026020018201604052801561023557816020015b60608152602001906001900390816102205790505b509050606060018054905060405190808252806020026020018201604052801561027357816020015b606081526020019060019003908161025e5790505b50905060606001805490506040519080825280602002602001820160405280156102ac5781602001602082028038833980820191505090505b50905060606001805490506040519080825280602002602001820160405280156102e55781602001602082028038833980820191505090505b50905060008090505b60018054905081101561051a576001818154811061030857fe5b906000526020600020906103f002016002018054600181600116156101000203166002900480601f0160208091040260200160405190810160405280929190818152602001828054600181600116156101000203166002900480156103ae5780601f10610383576101008083540402835291602001916103ae565b820191906000526020600020905b81548152906001019060200180831161039157829003601f168201915b50505050508582815181106103bf57fe5b6020026020010181905250600181815481106103d757fe5b906000526020600020906103f002016003016000018054600181600116156101000203166002900480601f0160208091040260200160405190810160405280929190818152602001828054600181600116156101000203166002900480156104805780601f1061045557610100808354040283529160200191610480565b820191906000526020600020905b81548152906001019060200180831161046357829003601f168201915b505050505084828151811061049157fe5b6020026020010181905250600181815481106104a957fe5b906000526020600020906103f002016103ef01548382815181106104c957fe5b602002602001018181525050600181815481106104e257fe5b906000526020600020906103f002016000015482828151811061050157fe5b60200260200101818152505080806001019150506102ee565b508383838397509750975097505050505090919293565b600080905060011515821515141561058d576000803373ffffffffffffffffffffffffffffffffffffffff1673ffffffffffffffffffffffffffffffffffffffff1681526020019081526020016000206103eb015490506105d6565b6000803373ffffffffffffffffffffffffffffffffffffffff1673ffffffffffffffffffffffffffffffffffffffff1681526020019081526020016000206103eb015460000390505b80600184815481106105e457fe5b906000526020600020906103f002016103ef0154016001848154811061060657fe5b906000526020600020906103f002016103ef01819055506001838154811061062a57fe5b906000526020600020906103f00201600101819080600181540180825580915050906001820390600052602060002001600090919290919091505550806000803373ffffffffffffffffffffffffffffffffffffffff1673ffffffffffffffffffffffffffffffffffffffff168152602001908152602001600020600301846103e881106106b457fe5b0181905550505050565b606080600060606000600186815481106106d457fe5b906000526020600020906103f00201600201600187815481106106f357fe5b906000526020600020906103f002016003016000016001888154811061071557fe5b906000526020600020906103f002016103ef01546001898154811061073657fe5b906000526020600020906103f0020160010160018a8154811061075557fe5b906000526020600020906103f0020160000154848054600181600116156101000203166002900480601f0160208091040260200160405190810160405280929190818152602001828054600181600116156101000203166002900480156107fd5780601f106107d2576101008083540402835291602001916107fd565b820191906000526020600020905b8154815290600101906020018083116107e057829003601f168201915b50505050509450838054600181600116156101000203166002900480601f0160208091040260200160405190810160405280929190818152602001828054600181600116156101000203166002900480156108995780601f1061086e57610100808354040283529160200191610899565b820191906000526020600020905b81548152906001019060200180831161087c57829003601f168201915b50505050509350818054806020026020016040519081016040528092919081815260200182805480156108eb57602002820191906000526020600020905b8154815260200190600101908083116108d7575b505050505091509450945094509450945091939590929450565b6001818154811061091257fe5b906000526020600020906103f00201600091509050806000015490806002018054600181600116156101000203166002900480601f0160208091040260200160405190810160405280929190818152602001828054600181600116156101000203166002900480156109c55780601f1061099a576101008083540402835291602001916109c5565b820191906000526020600020905b8154815290600101906020018083116109a857829003601f168201915b505050505090806003016040518060a0016040529081600082018054600181600116156101000203166002900480601f016020809104026020016040519081016040528092919081815260200182805460018160011615610100020316600290048015610a735780601f10610a4857610100808354040283529160200191610a73565b820191906000526020600020905b815481529060010190602001808311610a5657829003601f168201915b50505050508152602001600182018054600181600116156101000203166002900480601f016020809104026020016040519081016040528092919081815260200182805460018160011615610100020316600290048015610b155780601f10610aea57610100808354040283529160200191610b15565b820191906000526020600020905b815481529060010190602001808311610af857829003601f168201915b5050505050815260200160028201805480602002602001604051908101604052809291908181526020018280548015610b6d57602002820191906000526020600020905b815481526020019060010190808311610b59575b50505050508152602001600382016103e88060200260405190810160405280929190826103e88015610bb4576020028201915b815481526020019060010190808311610ba0575b505050505081526020016103eb8201548152505090806103ef0154905084565b816000808573ffffffffffffffffffffffffffffffffffffffff1673ffffffffffffffffffffffffffffffffffffffff1681526020019081526020016000206103eb0181905550806000808573ffffffffffffffffffffffffffffffffffffffff1673ffffffffffffffffffffffffffffffffffffffff1681526020019081526020016000206000019080519060200190610c709291906112ee565b50505050565b60606000808373ffffffffffffffffffffffffffffffffffffffff1673ffffffffffffffffffffffffffffffffffffffff168152602001908152602001600020600201805480602002602001604051908101604052809291908181526020018280548015610d0357602002820191906000526020600020905b815481526020019060010190808311610cef575b50505050509050919050565b6000602052806000526040600020600091509050806000018054600181600116156101000203166002900480601f016020809104026020016040519081016040528092919081815260200182805460018160011615610100020316600290048015610dbb5780601f10610d9057610100808354040283529160200191610dbb565b820191906000526020600020905b815481529060010190602001808311610d9e57829003601f168201915b505050505090806001018054600181600116156101000203166002900480601f016020809104026020016040519081016040528092919081815260200182805460018160011615610100020316600290048015610e595780601f10610e2e57610100808354040283529160200191610e59565b820191906000526020600020905b815481529060010190602001808311610e3c57829003601f168201915b505050505090806103eb0154905083565b60006002905060008060003373ffffffffffffffffffffffffffffffffffffffff1673ffffffffffffffffffffffffffffffffffffffff1681526020019081526020016000206103eb0154905060016040518060a0016040528086815260200184805480602002602001604051908101604052809291908181526020018280548015610f1557602002820191906000526020600020905b815481526020019060010190808311610f01575b505050505081526020018581526020016000803373ffffffffffffffffffffffffffffffffffffffff1673ffffffffffffffffffffffffffffffffffffffff1681526020019081526020016000206040518060a0016040529081600082018054600181600116156101000203166002900480601f0160208091040260200160405190810160405280929190818152602001828054600181600116156101000203166002900480156110075780601f10610fdc57610100808354040283529160200191611007565b820191906000526020600020905b815481529060010190602001808311610fea57829003601f168201915b50505050508152602001600182018054600181600116156101000203166002900480601f0160208091040260200160405190810160405280929190818152602001828054600181600116156101000203166002900480156110a95780601f1061107e576101008083540402835291602001916110a9565b820191906000526020600020905b81548152906001019060200180831161108c57829003601f168201915b505050505081526020016002820180548060200260200160405190810160405280929190818152602001828054801561110157602002820191906000526020600020905b8154815260200190600101908083116110ed575b50505050508152602001600382016103e88060200260405190810160405280929190826103e88015611148576020028201915b815481526020019060010190808311611134575b505050505081526020016103eb8201548152505081526020018381525090806001815401808255809150509060018203906000526020600020906103f00201600090919290919091506000820151816000015560208201518160010190805190602001906111b792919061136e565b5060408201518160020190805190602001906111d49291906113bb565b5060608201518160030160008201518160000190805190602001906111fa9291906113bb565b5060208201518160010190805190602001906112179291906113bb565b50604082015181600201908051906020019061123492919061136e565b50606082015181600301906103e861124d92919061143b565b506080820151816103eb015550506080820151816103ef01555050506000803373ffffffffffffffffffffffffffffffffffffffff1673ffffffffffffffffffffffffffffffffffffffff1681526020019081526020016000206002016001808054905003908060018154018082558091505090600182039060005260206000200160009091929091909150555050505050565b6000600180549050905090565b828054600181600116156101000203166002900490600052602060002090601f016020900481019282601f1061132f57805160ff191683800117855561135d565b8280016001018555821561135d579182015b8281111561135c578251825591602001919060010190611341565b5b50905061136a919061147c565b5090565b8280548282559060005260206000209081019282156113aa579160200282015b828111156113a957825182559160200191906001019061138e565b5b5090506113b7919061147c565b5090565b828054600181600116156101000203166002900490600052602060002090601f016020900481019282601f106113fc57805160ff191683800117855561142a565b8280016001018555821561142a579182015b8281111561142957825182559160200191906001019061140e565b5b509050611437919061147c565b5090565b826103e8810192821561146b579160200282015b8281111561146a57825182559160200191906001019061144f565b5b509050611478919061147c565b5090565b61149e91905b8082111561149a576000816000905550600101611482565b5090565b90565b6000813590506114b081611e0f565b92915050565b6000813590506114c581611e26565b92915050565b6000813590506114da81611e3d565b92915050565b600082601f8301126114f157600080fd5b81356115046114ff82611bf4565b611bc7565b9150808252602083016020830185838301111561152057600080fd5b61152b838284611dbc565b50505092915050565b60008135905061154381611e54565b92915050565b60006020828403121561155b57600080fd5b6000611569848285016114a1565b91505092915050565b60008060006060848603121561158757600080fd5b6000611595868287016114a1565b93505060206115a686828701611534565b925050604084013567ffffffffffffffff8111156115c357600080fd5b6115cf868287016114e0565b9150509250925092565b600080604083850312156115ec57600080fd5b60006115fa858286016114cb565b925050602083013567ffffffffffffffff81111561161757600080fd5b611623858286016114e0565b9150509250929050565b60006020828403121561163f57600080fd5b600061164d84828501611534565b91505092915050565b6000806040838503121561166957600080fd5b600061167785828601611534565b9250506020611688858286016114b6565b9150509250929050565b600061169e83836118bc565b60208301905092915050565b60006116b68383611913565b905092915050565b60006116ca8383611a0b565b60208301905092915050565b60006116e182611c6a565b6116eb8185611cf9565b93506116f683611c20565b8060005b8381101561172757815161170e8882611692565b975061171983611cb8565b9250506001810190506116fa565b5085935050505092915050565b600061173f82611c75565b6117498185611d0a565b93508360208202850161175b85611c30565b8060005b85811015611797578484038952815161177885826116aa565b945061178383611cc5565b925060208a0199505060018101905061175f565b50829750879550505050505092915050565b6117b281611c80565b6117bc8184611d1b565b92506117c782611c40565b8060005b838110156117f85781516117df87826116be565b96506117ea83611cd2565b9250506001810190506117cb565b505050505050565b600061180b82611c97565b6118158185611d37565b935061182083611c5a565b8060005b8381101561185157815161183888826116be565b975061184383611cec565b925050600181019050611824565b5085935050505092915050565b600061186982611c8c565b6118738185611d26565b935061187e83611c4a565b8060005b838110156118af57815161189688826116be565b97506118a183611cdf565b925050600181019050611882565b5085935050505092915050565b6118c581611d88565b82525050565b6118d481611d88565b82525050565b60006118e582611cad565b6118ef8185611d59565b93506118ff818560208601611dcb565b61190881611dfe565b840191505092915050565b600061191e82611ca2565b6119288185611d48565b9350611938818560208601611dcb565b61194181611dfe565b840191505092915050565b600061195782611ca2565b6119618185611d59565b9350611971818560208601611dcb565b61197a81611dfe565b840191505092915050565b6000617d808301600083015184820360008601526119a38282611913565b915050602083015184820360208601526119bd8282611913565b915050604083015184820360408601526119d7828261185e565b91505060608301516119ec60608601826117a9565b506080830151611a00617d60860182611a0b565b508091505092915050565b611a1481611db2565b82525050565b611a2381611db2565b82525050565b60006080820190508181036000830152611a438187611734565b90508181036020830152611a578186611734565b90508181036040830152611a6b8185611800565b90508181036060830152611a7f81846116d6565b905095945050505050565b60006020820190508181036000830152611aa48184611800565b905092915050565b6000608082019050611ac160008301876118cb565b8181036020830152611ad3818661194c565b90508181036040830152611ae78185611985565b9050611af66060830184611a1a565b95945050505050565b600060a0820190508181036000830152611b1981886118da565b90508181036020830152611b2d81876118da565b9050611b3c6040830186611a1a565b8181036060830152611b4e8185611800565b9050611b5d60808301846118cb565b9695505050505050565b60006060820190508181036000830152611b81818661194c565b90508181036020830152611b95818561194c565b9050611ba46040830184611a1a565b949350505050565b6000602082019050611bc16000830184611a1a565b92915050565b6000604051905081810181811067ffffffffffffffff82111715611bea57600080fd5b8060405250919050565b600067ffffffffffffffff821115611c0b57600080fd5b601f19601f8301169050602081019050919050565b6000819050602082019050919050565b6000819050602082019050919050565b6000819050919050565b6000819050602082019050919050565b6000819050602082019050919050565b600081519050919050565b600081519050919050565b60006103e89050919050565b600081519050919050565b600081519050919050565b600081519050919050565b600081519050919050565b6000602082019050919050565b6000602082019050919050565b6000602082019050919050565b6000602082019050919050565b6000602082019050919050565b600082825260208201905092915050565b600082825260208201905092915050565b600081905092915050565b600082825260208201905092915050565b600082825260208201905092915050565b600082825260208201905092915050565b600082825260208201905092915050565b6000611d7582611d92565b9050919050565b60008115159050919050565b6000819050919050565b600073ffffffffffffffffffffffffffffffffffffffff82169050919050565b6000819050919050565b82818337600083830152505050565b60005b83811015611de9578082015181840152602081019050611dce565b83811115611df8576000848401525b50505050565b6000601f19601f8301169050919050565b611e1881611d6a565b8114611e2357600080fd5b50565b611e2f81611d7c565b8114611e3a57600080fd5b50565b611e4681611d88565b8114611e5157600080fd5b50565b611e5d81611db2565b8114611e6857600080fd5b5056fea365627a7a72315820b88d611c9545df863d96faf5957b8bdcd42cac4b0347b71d250523ce541eee046c6578706572696d656e74616cf564736f6c63430005100040",
  "source": "pragma solidity >=0.4.25 <0.6.0;\r\npragma experimental ABIEncoderV2;\r\n\r\ncontract News {\r\n    struct User {\r\n        string username;\r\n        string email;\r\n        uint256[] postes;\r\n        uint256[1000] votes;\r\n        uint256 reputation;\r\n    }\r\n\r\n    struct Post {\r\n        bytes32 _hash;\r\n        uint256[] votes;\r\n        string title;\r\n        User author;\r\n        uint256 quality;\r\n    }\r\n\r\n    mapping(address => User) public users;\r\n    Post[] public postes;\r\n    uint256[] __votes;\r\n\r\n    function publishPost(bytes32 __hash,string memory _title) public {\r\n        uint256[] storage _votes = __votes;\r\n        uint256 _quality = users[msg.sender].reputation;\r\n        postes.push(\r\n            Post({\r\n            _hash: __hash,\r\n            votes: _votes,\r\n            quality: _quality,\r\n            title: _title,\r\n            author: users[msg.sender]\r\n            })\r\n        );\r\n        users[msg.sender].postes.push(postes.length - 1);\r\n    }\r\n\r\n    function votePost(uint256 id, bool real) public {\r\n        uint256 reps = 0;\r\n        if (real == true) {\r\n            reps = users[msg.sender].reputation;\r\n        } else {\r\n            reps = -users[msg.sender].reputation;\r\n        }\r\n        postes[id].quality = postes[id].quality + reps;\r\n        postes[id].votes.push(reps);\r\n        users[msg.sender].votes[id] = reps;\r\n    }\r\n\r\n    function getNumberPosts() public view returns (uint256) {\r\n        return postes.length;\r\n    }\r\n\r\n    function getAllPosts() public view  returns (string[] memory, string[] memory, uint256[] memory, bytes32[] memory)\r\n    {\r\n        string[] memory titles = new string[](postes.length);\r\n        string[] memory authors = new string[](postes.length);\r\n        uint256[] memory quality = new uint256[](postes.length);\r\n        bytes32[] memory hashes = new bytes32[](postes.length);\r\n\r\n        for (uint256 i = 0; i < postes.length; i++) {\r\n            titles[i] = postes[i].title;\r\n            authors[i] = postes[i].author.username;\r\n            quality[i] = postes[i].quality;\r\n            hashes[i] = postes[i]._hash;\r\n        }\r\n\r\n        return (titles, authors, quality,hashes);\r\n    }\r\n\r\n    function setUserData(address target, uint256 _reputation, string memory _username) public {\r\n        users[target].reputation = _reputation;\r\n        users[target].username = _username;\r\n    }\r\n\r\n    function getUserPosts(address addr) public view returns (uint256[] memory)\r\n    {\r\n        return users[addr].postes;\r\n    }\r\n\r\n    function getPost(uint256 id) public view returns ( string memory, string memory, uint256, uint256[] memory,bytes32 )\r\n    {\r\n        return (postes[id].title, postes[id].author.username, postes[id].quality, postes[id].votes, postes[id]._hash);\r\n    }\r\n}\r\n",
  "sourcePath": "C:\\Users\\mahdi\\Desktop\\PIMFinal\\fakeNews\\contracts\\News.sol",
  "compiler": {
    "name": "solc",
    "version": "0.5.16+commit.9c3226ce.Emscripten.clang"
  },
  "schemaVersion": "3.4.3",
  "updatedAt": "2021-09-09T06:06:48.265Z",
  "networkType": "ethereum",
  "devdoc": {
    "methods": {}
  },
  "userdoc": {
    "methods": {}
  }
}